:020000040000FA
:0400000007EF00F016
:10000800198209ED00F00EEF03F00600D9CF0EF0CB
:10001800DACF0FF0F3CF10F0F4CF11F0F2AA17EF08
:1000280000F019EF00F039EF00F0F2A41EEF00F035
:1000380020EF00F039EF00F0520E126E140E136E1E
:1000480013C00AF01250A1EC02F0146E7F0E146473
:1000580030EF00F032EF00F035EF00F0818E36EF30
:1000680000F0819EF294A2EF01F0F2A83EEF00F0BA
:1000780040EF00F04AEF00F0F2A245EF00F047EF42
:1000880000F04AEF00F0F292A2EF01F0F2A64FEF73
:1000980000F051EF00F05BEF00F0F2A056EF00F037
:1000A80058EF00F05BEF00F0F290A2EF01F0F0A83B
:1000B80060EF00F062EF00F06CEF00F0F0A267EF85
:1000C80000F069EF00F06CEF00F0F092A2EF01F0A1
:1000D800F0A671EF00F073EF00F07DEF00F0F0A0F4
:1000E80078EF00F07AEF00F07DEF00F0F090A2EFEB
:1000F80001F09DAC82EF00F084EF00F08EEF00F08D
:100108009EAC89EF00F08BEF00F08EEF00F09E9C24
:10011800A2EF01F09DAA93EF00F095EF00F09FEF9A
:1001280000F09EAA9AEF00F09CEF00F09FEF00F01D
:100138009E9AA2EF01F09DA8A4EF00F0A6EF00F0B0
:10014800B0EF00F09EA8ABEF00F0ADEF00F0B0EF1D
:1001580000F09E98A2EF01F09EA6B5EF00F0B7EF71
:1001680000F0C1EF00F09EA6BCEF00F0BEEF00F07B
:10017800C1EF00F09E96A2EF01F09DA4C6EF00F03B
:10018800C8EF00F0D2EF00F09EA4CDEF00F0CFEF63
:1001980000F0D2EF00F09E94A2EF01F09DA2D7EFFD
:1001A80000F0D9EF00F0E3EF00F09EA2DEEF00F0E0
:1001B800E0EF00F0E3EF00F09E92A2EF01F09DA0C7
:1001C800E8EF00F0EAEF00F0F4EF00F09EA0EFEFA8
:1001D80000F0F1EF00F0F4EF00F09E90A2EF01F0D4
:1001E800A0AEF9EF00F0FBEF00F005EF01F0A1AED3
:1001F80000EF01F002EF01F005EF01F0A19EA2EF80
:1002080001F0A0AC0AEF01F00CEF01F016EF01F0DD
:10021800A1AC11EF01F013EF01F016EF01F0A19C72
:10022800A2EF01F0A0AA1BEF01F01DEF01F027EFEC
:1002380001F0A1AA22EF01F024EF01F027EF01F06D
:10024800A19AA2EF01F0A0A82CEF01F02EEF01F087
:1002580038EF01F0A1A833EF01F035EF01F038EFE6
:1002680001F0A198A2EF01F0A0A63DEF01F03FEF49
:1002780001F049EF01F0A1A644EF01F046EF01F0CB
:1002880049EF01F0A196A2EF01F0A0A44EEF01F012
:1002980050EF01F05AEF01F0A1A455EF01F057EF2C
:1002A80001F05AEF01F0A194A2EF01F0A0A25FEFD4
:1002B80001F061EF01F06BEF01F0A1A266EF01F030
:1002C80068EF01F06BEF01F0A192A2EF01F0A0A09E
:1002D80070EF01F072EF01F0A2EF01F0A1A077EF4B
:1002E80001F079EF01F0A2EF01F0A190A2EF01F087
:1002F800A2EF01F0A2EF01F0A2EF01F0A2EF01F0EE
:10030800A2EF01F0A2EF01F0A2EF01F0A2EF01F0DD
:10031800A2EF01F0A2EF01F0A2EF01F0A2EF01F0CD
:10032800A2EF01F0A2EF01F0A2EF01F0A2EF01F0BD
:10033800A2EF01F0A2EF01F0A2EF01F011C0F4FF6B
:1003480010C0F3FF0FC0DAFF0EC0D9FF19921100D9
:10035800076EE5EC02F007C0C9FFB3EF01F09EA6F7
:10036800B8EF01F0BAEF01F0B3EF01F09E96C5AC1B
:10037800C0EF01F0C2EF01F0C8EF01F001EC03F0AB
:100388004BEF02F04BEF02F0000E086EF0EF01F0B9
:100398000850010DF3500124D96EF4500220DA6E92
:1003A800DF50C96ED8EF01F09EA6DDEF01F0DFEF58
:1003B80001F0D8EF01F09E96C5ACE5EF01F0E7EF4C
:1003C80001F0EDEF01F001EC03F04BEF02F04BEF21
:1003D80002F0082AF0EF01F00350085CD8A0F7EF0C
:1003E80001F0F9EF01F0CCEF01F0FBEF01F0F3ECD5
:1003F80002F00728C96E01EF02F09EA606EF02F090
:1004080008EF02F001EF02F09E96C5AC0EEF02F085
:1004180010EF02F016EF02F001EC03F04BEF02F0E0
:100428004BEF02F0000E096E40EF02F0C5861DEF9B
:1004380002F0C7A022EF02F024EF02F01DEF02F055
:1004480026EF02F00950010DF3500424D96EF45040
:100458000520DA6EC9CFDFFFC58AC58834EF02F000
:10046800C5B839EF02F03BEF02F034EF02F03DEF90
:1004780002F0092A40EF02F00650095CD8A047EFC5
:1004880002F049EF02F01AEF02F04BEF02F012000F
:10049800F28EF29CF28AF298F296F18EF18CF18A41
:1004A800F188F184F180F08EF08CF0989D9C9D9AF3
:1004B8009D989D969D949D929D90A09EA09CA09A8B
:1004C800A098A096A094A092A0909F8C9F8A9F88A5
:1004D8009F869F849F829F80A28EA28CA28AA288D8
:1004E800A286A284A282A28012007BEF02F0C7B487
:1004F80080EF02F082EF02F07BEF02F0C5B687EFE3
:1005080002F089EF02F07BEF02F0C5B48EEF02F043
:1005180090EF02F07BEF02F0C5B295EF02F097EF93
:1005280002F07BEF02F0C5B09CEF02F09EEF02F004
:100538007BEF02F0A0EF02F012000B6E18C00CF077
:100548000AC00CF017C00DF00C0E016E000E026E02
:10055800010E036E0D0E046E000E056E010E066E82
:100568000B50ACEC01F00D50BAEF02F01200938082
:100578009382C79EC79CC69EC69CC68AC688C686E6
:10058800C694C692C690C59EC59CC59AC598C59680
:10059800C594C592C590270EC86E12004CEC02F0A7
:1005A800BBEC02F017EC03F0D58ED59CD59AD58814
:1005B800D596D584D582D580939EE1EF02F007EFDA
:1005C80000F079EC02F0C580EAEF02F0C5B0EFEF79
:1005D80002F0F1EF02F0EAEF02F09E96120079ECD9
:1005E80002F0C582F8EF02F0C5B0FDEF02F0FFEFB0
:1005F80002F0F8EF02F09E961200C58404EF03F0B3
:10060800C5B409EF03F00BEF03F004EF03F00DEFAF
:1006180003F01200186A176A166A156A1990199277
:080628000001D2EF02F0120004
:020000040020DA
:08000000FFFFFFFFFFFFFFFF00
:020000040030CA
:0E00000000091F1EFF0385FF0FC00FE00F4019
:00000001FF
